:100000000C9446000C945D000C945D000C945D0013
:100010000C945D000C945D000C945D000C945D00EC
:100020000C945D000C945D000C945D000C945D00DC
:100030000C945D000C945D000C945D000C945D00CC
:100040000C945D000C945D000C945D000C945D00BC
:100050000C945D000C945D000C945D000C945D00AC
:100060000C945D000C945D000C945D000C945D009C
:100070000C945D000C945D000C945D000C945D008C
:100080000C945D000C945D000C945D0011241FBE67
:10009000CFEFD0E4DEBFCDBF11E0A0E0B1E0EEE1F4
:1000A000F2E000E00BBF02C007900D92AE30B10746
:1000B000D9F70E9488000C940D010C940000CF9396
:1000C000DF9300D01F92CDB7DEB789837B836A832D
:1000D00089818A3031F48A819B81BC018DE00E9444
:1000E0005F0080EC90E0FC018081882F90E08072BE
:1000F00099270097B1F386EC90E02981FC012083D9
:1001000080E090E00F900F900F90DF91CF910895D5
:10011000CF93DF9300D000D01F92CDB7DEB781E23E
:1001200090E0FC01108282E290E0FC01108284E207
:1001300090E0FC01108285E290E0FC01108287E2F1
:1001400090E0FC01108288E290E0FC0110828AE2DB
:1001500090E02FEFFC0120838BE290E0FC01108205
:1001600019821A821B821D821C8280E290E0FC01AF
:100170008081282F30E083E290E0FC018081882F8D
:1001800090E0280F391F86E290E0FC018081882FE3
:1001900090E0820F931F9D838C8321E08C819D8151
:1001A0008D3891050CF420E02A8380E290E0FC0178
:1001B0008081282F30E086E290E0FC018081882F4A
:1001C00090E0805B9F4F821793078CF086E290E06F
:1001D000FC018081282F30E080E290E0FC018081EA
:1001E000882F90E0805B9F4F8217930714F482E082
:1001F00001C080E08B838C819D8195958795959535
:1002000087958C7F89838BE290E039812A81322B1C
:0E0210002B81232BFC012083A8CFF894FFCF75
:0E021E0000000002000000005F000000000071
:00000001FF
