:100000000C9446000C945D000C945D000C945D0013
:100010000C945D000C945D000C945D000C945D00EC
:100020000C945D000C945D000C945D000C945D00DC
:100030000C945D000C945D000C945D000C945D00CC
:100040000C945D000C945D000C945D000C945D00BC
:100050000C945D000C945D000C945D000C945D00AC
:100060000C945D000C945D000C945D000C945D009C
:100070000C945D000C945D000C945D000C945D008C
:100080000C945D000C945D000C945D0011241FBE67
:10009000CFEFD0E4DEBFCDBF11E0A0E0B1E0E4EBF4
:1000A000F1E000E00BBF02C007900D92AE30B10747
:1000B000D9F70E9488000C94D8000C940000CF93CC
:1000C000DF9300D01F92CDB7DEB789837B836A832D
:1000D00089818A3031F48A819B81BC018DE00E9444
:1000E0005F0080EC90E0FC018081882F90E08072BE
:1000F00099270097B1F386EC90E02981FC012083D9
:1001000080E090E00F900F900F90DF91CF910895D5
:10011000CF93DF9300D0CDB7DEB781E290E0FC0152
:10012000108282E290E0FC01108287E290E02FEFE3
:10013000FC01208388E290E0FC01108219821A827F
:1001400080E290E0FC0180818F7089838981882F13
:1001500090E08870992795958795959587959595C1
:100160008795282F21958981882F90E08470992781
:100170009595879595958795281B8981882F90E07F
:100180008270992795958795281B8981882F90E003
:100190008170992731E0009709F030E0832F820FBA
:1001A0008D5F8A8388E290E02A81FC012083C8CF9A
:0401B000F894FFCFF1
:0E01B40000000002000000005F0000000000DC
:00000001FF
