:100000000C9446000C945D000C945D000C945D0013
:100010000C945D000C945D000C945D000C945D00EC
:100020000C945D000C945D000C945D000C945D00DC
:100030000C945D000C945D000C945D000C945D00CC
:100040000C945D000C945D000C945D000C945D00BC
:100050000C945D000C945D000C945D000C945D00AC
:100060000C945D000C945D000C945D000C945D009C
:100070000C945D000C945D000C945D000C945D008C
:100080000C945D000C945D000C945D0011241FBE67
:10009000CFEFD0E4DEBFCDBF11E0A0E0B1E0EAEFEA
:1000A000F1E000E00BBF02C007900D92AE30B10747
:1000B000D9F70E9488000C94FB000C940000CF93A9
:1000C000DF9300D01F92CDB7DEB789837B836A832D
:1000D00089818A3031F48A819B81BC018DE00E9444
:1000E0005F0080EC90E0FC018081882F90E08072BE
:1000F00099270097B1F386EC90E02981FC012083D9
:1001000080E090E00F900F900F90DF91CF910895D5
:10011000CF93DF9300D01F92CDB7DEB781E290E09E
:10012000FC01108282E290E0FC01108284E290E007
:10013000FC01108285E290E0FC01108287E290E0F1
:10014000FC01108288E290E0FC0110828AE290E0DB
:100150002FEFFC0120838BE290E0FC0110821982DA
:100160001B821A8280E290E0FC01208183E290E011
:10017000FC018081280F86E290E0FC018081820FE3
:100180008983898188232CF4898186958695898342
:100190000AC089818295869586958370882319F097
:1001A0008981869589838981880F880F89838A81CF
:1001B0009B818D3891051CF089818160898382E261
:1001C00090E0FC018081282F30E088E290E0FC0183
:1001D0008081882F90E0A901481B590BCA01813505
:1001E00091051CF08981826089838BE290E02981EE
:0A01F000FC012083B7CFF894FFCF85
:0E01FA0000000002000000005F000000000096
:00000001FF
